:020000040000FA
:020000000528D1
:040002000034003492
:020008004E2880
:100020000030BC00BD00BE000230B8000330B90093
:100030000530BA000930BB008301870188018801BF
:1000400083168701880186018609811281110111B9
:100050008110011483120230B000B100B200B3006D
:10006000B400B5008801870986308100B601B70168
:100070000530B600B7008B018B168B150B168B174E
:1000800000006400402882073F3406345B344F345C
:1000900066346D347D3407347F3467348B130B1929
:1000A00054285B288B1709000000BC2803290B117A
:1000B0008630810052280000061C6828640003294D
:1000C0006B28861873280619892886199F285C28AA
:1000D0000B108B1052280030861CBC00061DBD0082
:1000E000861DBE0061283C08031D6728FF30BC0048
:1000F00030083B0203197E28B00A67280030B000A0
:1001000031083A0203198628B10A67280030B10085
:1001100067283D08031D6728FF30BD0032083B02F9
:1001200003199428B20A67280030B20033083A0253
:1001300003199C28B30A67280030B30067283E08DB
:10014000031D6728FF30BE00350838020319B228A6
:1001500034083B020319AE28B40A67280030B40003
:10016000B50A6728340839020319B828B40A672881
:100170000030B400B500672836090319C128B60A53
:10018000562837090319C628B70A56280000053033
:10019000B600B70030083B020319D128B00A0000AE
:1001A00056280030B00031083A020319D928B10AA4
:1001B000CF280030B10032083B020319E128B20A0F
:1001C000CF280030B20033083A020319E928B30AF5
:1001D000CF280030B300350838020319F928340855
:1001E0003B020319F528B40ACF280030B400B50A41
:1001F000CF28340839020319FF28B40ACF28003069
:10020000B400B500CF28071C0E29871C1629071D2E
:100210001E29871D2629071E2E2936290714310875
:100220004320880087100618602857288714320852
:10023000432088000711061860285728071533083F
:10024000432088008711061860285728871534082E
:10025000432088000712061860285728071635081B
:100260004320880087120618602857288716300810
:0C0270004320880007100618602857285B
:00000001FF
