:020000040000FA
:020000000528D1
:040002000034003492
:020008004E2880
:100020000030BC00BD00BE000230B8000330B90093
:100030000530BA000930BB008301870188018601C1
:1000400083168701880186018609811281110111B9
:100050008110011483120030B000B100B200B3006F
:10006000B400B50088018701870986308100B60198
:10007000B7010530B600B7008B018B160B168B1736
:1000800000006400402882073F3406345B344F345C
:1000900066346D347D3407347F3467348B130B1929
:1000A00055288B185C288B1709000000BC280329F1
:1000B0000B118630810053280000061C692864005B
:1000C00003296B28861873280619892886199F2802
:1000D0005D288B1053280030861CBC00061DBD0017
:1000E000861DBE0062283C08031D6428FF30BC004A
:1000F00030083B0203197E28B00A64280030B000A3
:1001000031083A0203198628B10A64280030B10088
:1001100064283D08031D6628FF30BD0032083B02FD
:1001200003199428B20A66280030B20033083A0254
:1001300003199C28B30A66280030B30066283E08DD
:10014000031D6828FF30BE00350838020319B228A5
:1001500034083B020319AE28B40A68280030B40002
:10016000B50A6828340839020319B828B40A68287F
:100170000030B400B500682836090319C128B60A52
:10018000572837090319C628B70A57280000053031
:10019000B600B70030083B020319D128B00A0000AE
:1001A00057280030B00031083A020319D928B10AA3
:1001B000CF280030B10032083B020319E128B20A0F
:1001C000CF280030B20033083A020319E928B30AF5
:1001D000CF280030B300350838020319F928340855
:1001E0003B020319F528B40ACF280030B400B50A41
:1001F000CF28340839020319FF28B40ACF28003069
:10020000B400B500CF28071C0E29871C1629071D2E
:100210001F29871D2729071E30293829071431086F
:100220004320880087100618612858288714320850
:1002300043208800881707110618612858280715D9
:10024000330843208800871106186128582887152D
:100250003408432088008817071206186128582898
:100260000716350843208800871206186128582889
:100270008716300843208800071006186128582880
:00000001FF
