:020000040000FA
:020000000528D1
:040002000034003492
:020008004F287F
:100020000030BC00BD00BE000230B8000330B90093
:100030000530BA000930BB008301870188018801BF
:1000400083168701880186018609811281110111B9
:100050008110011483120230B000B100B200B3006D
:10006000B400B5008801870187098D308100B60191
:10007000B7010530B600B7008B018B168B150B1638
:100080008B1700006400412882073F3406345B343C
:100090004F3466346D347D3407347F3467348B13CA
:1000A0000B1955285C288B1709000000BD2804296E
:1000B0000B118D30810053280000061C6928640054
:1000C00004296C288618742806198A288619A028FD
:1000D0005D280B108B1053280030861CBC00061DB9
:1000E000BD00861DBE0062283C08031D6428FF3049
:1000F000BC0030083B0203197F28B00A6428003096
:10010000B00031083A0203198728B10A6428003088
:10011000B10064283D08031D6628FF30BD00320889
:100120003B0203199528B20A66280030B200330852
:100130003A0203199D28B30A66280030B3006628E6
:100140003E08031D6828FF30BE0035083802031939
:10015000B32834083B020319AF28B40A68280030DA
:10016000B400B50A6828340839020319B928B40A5A
:1001700068280030B400B500682836090319C22881
:10018000B60A572837090319C728B70A57280000A5
:100190000530B600B70030083B020319D228B00A78
:1001A000000057280030B00031083A020319DA285D
:1001B000B10AD0280030B10032083B020319E2280E
:1001C000B20AD0280030B20033083A020319EA28F4
:1001D000B30AD0280030B300350838020319FA28D2
:1001E00034083B020319F628B40AD0280030B400C2
:1001F000B50AD0283408390203190029B40AD028D6
:100200000030B400B500D028071C0F29871C17291F
:10021000071D2029871D2829071E31293929071480
:100220003108442088008710061861285828871450
:1002300032084420880088170711061861285828BA
:1002400007153308442088008711061861285828AC
:10025000871534084420880088170712061861287B
:100260005828071635084420880087120618612888
:10027000582887163008442088000710061861287F
:020280005828FC
:00000001FF
